S01600004D4732315065726970686572616C732E73333768
S21400400000000120DD7A0000D97A0000D97A00008D
S214004010D97A0000D97A0000D97A0000D97A00004F
S214004020D97A0000D97A0000D97A0000D97A00003F
S214004030D97A0000D97A0000D97A0000D97A00002F
S214004040D97A0000D97A0000D97A0000D97A00001F
S214004050D97A0000D97A0000D97A0000D97A00000F
S214004060D97A0000D97A0000D97A0000D97A0000FF
S214004070D97A0000D97A0000D97A0000D97A0000EF
S214004080D97A0000D97A0000D97A0000D97A0000DF
S214004090D97A0000D97A0000D97A0000D97A0000CF
S2140040A0D97A0000D97A0000D97A0000D97A0000BF
S2140040B0D97A0000D97A0000D97A0000C9CB00006E
S2140040C055CB000051CB000091C20000C5CB0000CC
S2140040D059CB000079CB00005DCB000051B000004A
S2140040E00DCC0000D97A0000D97A0000D97A0000F9
S2140040F0D97A0000D97A0000D97A0000D97A00006F
S214004100D97A0000D97A0000D97A0000D97A00005E
S214004110D97A0000D97A0000D97A0000D97A00004E
S214004120D97A0000D97A0000D97A0000D97A00003E
S214004130D97A000010B5054C237833B9044B13B177
S214004140044800E000BF0123237010BD08010020D2
S21400415000000000ACFA000008B5034B1BB1034991
S214004160034800E000BF08BD000000000C0100206E
S214004170ACFA0000154B002B08BF134B9D46A3F569
S214004180803A00218B460F461348144A121A09F04B
S21400419036FB0F4B002B00D098470E4B002B00D061
S2140041A098470020002104000D000D48002802D08A
S2140041B00C4800E000BF09F0F3FA2000290002F0E6
S2140041C0B7FE09F0D9FA00BF000008000000012081
S2140041D00000000000000000080100205C2C002009
S2140041E0000000000000000037B50446684680E87E
S2140041F00600251D03C885E805002373069B23617A
S214004200BDF81C30A38200232360084B1A6812B93D
S2140042101C6004E00A4611680029FBD114609888E7
S214004220013080B2988003B030BD00BF2407002064
S21400423007B50379054A0193036806CA0093083058
S2140042400223FFF7D1FF03B05DF804FBBCDA0000E1
S21400425070B528242368ADF5047DB3F5804F054678
S2140042600E4614D21B6BB3F5804F10D25B6A4FF428
S214004270037201A90020984730B9236832461B6BA9
S2140042802946DB6A01A898470DF5047D70BD4FF4FA
S2140042900170F9E770B528252B68ADF5047DB3F5F8
S2140042A0804F05D34FF4017420460DF5047D70BD94
S2140042B01B6B002BF6D05B6A4FF4037201A900203B
S2140042C0984704460028EFD140F201262B68B3F544
S2140042D0804FE7D21B6BB3F5804FE3D29B6A002179
S2140042E001A89847B042F1D040F20323984218BF85
S2140042F00446D9E741F671320F4B10B5D969DA6337
S2140043009A680E4C22F44012A04288BF42F48012F3
S2140043109A600B4A0B4CD2F81832A04223F00203E4
S21400432088BF43F0020301F48031C2F8183211B19D
S2140043300022014BDA6310BD00000340C017530291
S21400434000C0074080F0FA02094B0022996C30B595
S214004350DC6C234642EA0104220C82701A0A210A07
S214004360C2701A0C1B0E047041700271437130BD8E
S2140043700080E00F202A0B681EBF4FF0FF319140EF
S2140043808B43590801F055315B1A03F033319B0813
S21400439003F033330B44017803EB13130A444FF056
S2140043A0013103F00F334B43A2EB136303707047E6
S2140043B073B50026044602AD05F8016D011D1B22EB
S2140043C02846FFF7D7FF60689DF80730B3EBD06F3D
S2140043D003D120F0784002B070BD28461B2204F1BD
S2140043E008018DF80760FFF7C5FFA0689DF8073045
S2140043F0B3EBD06F01D1C043EBE74FF0FF30EAE7F5
S2140044004BF29A22036810B5B2EB134F044611D153
S2140044109BB2012B0ED1FFF7CBFF431C0AD04FF601
S214004420FF72E068030C93420AD180B2C01A18BF2C
S214004430012010BD236801330CBF03200420F8E7D9
S2140044400220F6E737B5054601F10C04436901A9D9
S214004450012220469847BDF8043002A941F8083DDD
S2140044600122AB692046984703B030BD2DE9F043E2
S214004470054689B09946036908460E46174698478A
S214004480044600286CD1D9F804304FEA53285FEA76
S214004490580804F101036BD199F8032099F802300B
S2140044A01203DB0203F4006302F480521A43B9F8E5
S2140044B000306403C3F30A03134404F460441C444A
S2140044C02D4B1B22039327F07843FF4302A901A834
S2140044D002938DF80480FFF74DFF9DF80420029BA1
S2140044E008A843EAC26300F81D8D1B2201A927F025
S2140044F0784704930197FFF73DFF9DF80320019B43
S21400450008A943EAC26305934FF0FF339DF84020A5
S214004510069382F0010202F57F42FE3244EA02442C
S21400452041F8044DAB69012206F110009847AB69CB
S2140045300446012205A906F108009847AB69002841
S21400454018BF0446012204A9301D9847AB6900280D
S21400455018BF0446012203A93046984750B91CB13B
S21400456031462846FFF76EFF204609B0BDE8F083C7
S2140045701C468CE70446F3E701009AB2036803F092
S2140045807F03012B03D8406820F07C407047072B40
S2140045908CBFD81F0020704741F6713370B51C4C95
S2140045A00122E669E36341F20C03E25002236061F4
S2140045B0054623610021212006F4803609F05CF9C7
S2140045C018B90146212009F057F942F20C030122DE
S2140045D0E2500EB10023E363431C02D018B10D482D
S2140045E000E00D4870BD0D4B9B680A3303F01F02B8
S2140045F00123934023F003032B44AB4201D1002058
S214004600F0E755F8042B0132F7D00548EAE700BF7B
S2140046100000034024E000F021E000F00080E00FFE
S2140046200EE000F0002310B59A4201D1002010BD24
S21400463050F8234041F823400133F5E77047000067
S21400464041F67132044B0121DA6342F20C029950B2
S2140046500022DA63704700BF0000034041F6713263
S214004660034B0121DA6342F20C0200209950704796
S214004670000003402DE9F0418646406800283BD004
S214004680DEF80070904600243E4657F83450013459
S214004690C5F3130C013501D0614532D0844206F1D2
S2140046A00806F2D13868013031D0002507F1080637
S2140046B006E057F835203046013206F1080627D0C6
S2140046C00135A542F5D1032B16D0DEF80070386808
S2140046D0C0F30750032823D0002407F1080608E09B
S2140046E057F83400B446C0F30750032806F108060E
S2140046F017D00134A542F3D101238EF80830BDE867
S214004700F08141EA0351C6E90018BDE8F081384659
S214004710C1F3130141EA0353C0E90038BDE8F08154
S214004720BC46C1F3130141EA0353CCE90038BDE8A7
S214004730F08100234FF0FF3230B544689C4202D12E
S2140047400023037230BD016801EBC30541F8332036
S2140047506A600133F2E70000EFF3108272B6034B93
S2140047601A6003680846DB68184700BFB81D0020BB
S21400477070B50025044686B00562E369AB4202D8F0
S214004780206A06B070BD666C2068E36B05225B6924
S21400479001A906FB0500984701A8FFF731FE01288E
S2140047A098BF236A05F101059CBF01332362E4E745
S2140047B0F7B507460E460D467B6C86EA05045B4257
S2140047C01C40A5EB060001D003B0F0BDFB6B012238
S2140047D05B6901A928469847019B013301D104353E
S2140047E0EAE72046F0E7F0B5002504462E4687B0F7
S2140047F0E369B34202D8284607B0F0BD2368676C69
S214004800052207FB0637E36B01A95B693846984724
S21400481001A8FFF7F5FD012809D807F11401204685
S214004820FFF7C6FF636C143B834208BF01350136B1
S214004830DEE7F0B5046806460C1B416C0025B4FBA9
S214004840F1F487B0F36930685A1E9542776C06D348
S214004850716C306801FB0400143007B0F0BD013401
S214004860B4FBF3F103FB1144F36B05225B6901A96A
S21400487007FB0400984701A8FFF7C2FD0128E7D907
S2140048800135DFE72DE9F04F144607460E469946F8
S214004890C36B89B05B69012205A96068DDF84880B2
S2140048A09847FB6B01225B6904A930469847059B35
S2140048B05A1C06D10020A360A075607509B0BDE83B
S2140048C0F08F01214FF0000EA175217E049A04EBB3
S2140048D0C101CE61A1F820E0606802F07F05B04219
S2140048E0C2F3D31CE9B20CD14FF0FF33C4F800C0BA
S2140048F02175A360237D043B022B20D80020A075E1
S214004900DCE7206803F07F036045207D18BF84F84D
S21400491016E088421CBF0020A075012B8CBF00202B
S214004920012001298CBF0021012188421CBF0021E3
S214004930A175012D00F2D280012BDBD9D1E002F067
S2140049407F02012A0FD8FB6B02225B6906A930465C
S214004950984706A8FFF712FE237D032B69D8DFE8E9
S21400496003F06363040904A8F4E7CC21227E04EB79
S214004970C2021184684AD35C049D88F8003005F0B2
S2140049807F02012A88BF0025237E98BFC5F3C16534
S21400499004EBC303012A83F82250B3F820A000F2E8
S2140049A0A380FB6B02225B6906A93046984700236A
S2140049B00DF1200B0BF8113D202206A95846FFF7F3
S2140049C0D9FC1A2207A9FFF7D5FC9DF80F30079AE5
S2140049D0B3EB926F0CBF0123002308226375637D3F
S2140049E003B9A375A37D9BB1BAF1000F15D07B6CFC
S2140049F0B018594286EA000C1CEA010F1CBF0021C1
S214004A00A175591E01405B1A9A4584BF0023A37501
S214004A1094F816B0BBF1000F30D095B9E37D002BAB
S214004A2075D14FF0000B16E0227E04EBC202108414
S214004A30A0E7227E062B04EBC20210849AD901233B
S214004A409AE7012394F819B0E375BBF1000F24D15F
S214004A509D4228D165762AF00300304410441AF0AF
S214004A60030F7B6C18BF04305B4286EA00021342D9
S214004A7003D031463846FFF7DCFEA060A27D12B1B7
S214004A80236953442361237E012B0ED801332376FA
S214004A90B9F1000F0CD1A07D10E7012D37D0032D02
S214004AA008BFA376BDE79B46D5E70023A375F2E7CC
S214004AB0002AF0D0E37D002BEDD0BBF1000FEAD149
S214004AC0032DE8D0A1684B1CE5D0CDF8008001236B
S214004AD022463846FFF7D6FEA075DCE7012B3FF6E8
S214004AE009AF0023A37505E700231B2204A906A827
S214004AF08DF81830FFF73EFC9DF81830049AB3EB9B
S214004B00D26F0CBF012300230422637567E7A27DE2
S214004B104FF0010BB4E700BFB6D8000013B50C4643
S214004B20002100932176134661682246FFF7AAFE0D
S214004B3018B1E37D03B1A07EA075A07D02B010BDC4
S214004B40F0B50546002687B0EC69013CB44203D8B0
S214004B500C46204607B0F0BD01B14C1E6F6C2868AD
S214004B60EB6B05225B6901A907FB0400984701A8C7
S214004B70FFF746FC0128ECD901362146E4E7F0B5FC
S214004B8004460D46466CE36B006887B05B690522F9
S214004B9001A906FB0500984701A8FFF731FC01288C
S214004BA004D801A8FFF704FC07B0F0BD294620464C
S214004BB0FFF7C6FF0646676C2068E36B05225B6955
S214004BC001A907FB0600984701A8FFF7F1FB431C65
S214004BD0EAD0B54238BF0130E6E74369416CDA1DDA
S214004BE01439B2FBF1F28069013203EBC2020430E1
S214004BF000EB4200DA1CB2FBF1F203EBC203033314
S214004C00B3FBF1F3023301FB03007047214BD3F8EB
S214004C10F82102401CD1F0B4D3F8FC5103F5FC7423
S214004C20641BA410022CD3F8006212D0032C29D0E7
S214004C30012C1AD0184C05F10C026468C5E9004036
S214004C40C3F8FC21A96033680C333360F0BC7047AE
S214004C5070470422104C6468686098182C601960CD
S214004C60C3F8FC013260F0BC70471A4608240A4FAD
S214004C707F682F6042F8080B5960C3F8FC21346047
S214004C80F0BC7047044C6468A960C5E90040C3F8EE
S214004C90FC31E7E77C250020001000E0837DDB0781
S214004CA001D5808A7047D0E901239B1A44BF828AC7
S214004CB09B1898B270470000044B5A6D22B958658D
S214004CC0A3F858100120704700207047C406002043
S214004CD00A20D0B50B4CE38C584308F0B1FA0646D0
S214004CE0A08C0F4608F0ACFA0022074B08F012FB27
S214004CF002460B463046394608F036FC08F01CFDE6
S214004D002083D0BDC40600200000F43F40F2E243FA
S214004D10074A10B51468584303FB0141536800F571
S214004D20807001EB500118441160506010BD00BF48
S214004D30C40600200022134670B58AB0D910415C24
S214004D4003F007042141CC0742BF0AA9891801F8DD
S214004D50283C03F1010348BF0132252BEED1002386
S214004D600D4DD910415C03F007042141C90707D552
S214004D70E91881F82A300133252BF2D10AB070BD2C
S214004D8093FBF2F102FB11310AAE314411F8286CA4
S214004D90EC1884F82A60EEE7C4060020024BD868B8
S214004DA080B28002704700BF0080E00F0C4B10B549
S214004DB00C4CE41A0C4B1C4424F4FF5424F01F043F
S214004DC0FFF7ECFFA04202D80024204610BD204684
S214004DD0FFF716FB0128F8D904F50054F0E700BFEA
S214004DE01000002004010020F71A01007FB50246DB
S214004DF06D460D4B03F110062C46186859680833AB
S214004E0003C4B3422546F7D1531E04A90F3211F846
S214004E10014D13F8010F844204D19342F7D10120CB
S214004E2004B070BD0020FBE788D8000070B5154DB3
S214004E30286810BB144B154CE41A154B1C4424F47C
S214004E40FF5424F01F04FFF7A9FF844214D2666BB8
S214004E50A6B1FFF7A3FF864210D2FFF79FFF06F129
S214004E60400383420AD83046FFF7C0FF30B1F369EB
S214004E7033F0080302D02C60286870BD04F5005497
S214004E80E1E700BF8401002010000020040100209C
S214004E90F71A0100BFF34F8F0549064BCA6802F4A4
S214004EA0E0621343CB60BFF34F8F00BFFDE700BF48
S214004EB000ED00E00400FA0528231B68B3F5804FD8
S214004EC005D21B6BB3F5804F01D2DB6B184740F25F
S214004ED00110704728231B68B3F5804F05D21B6B63
S214004EE0B3F5804F01D29B6B184740F20110704714
S214004EF028231B68B3F5804F03D21968064A9142EF
S214004F0003D00023037083607047012202709A6802
S214004F109B694260F7E700BF07B0CD5E10B50C4650
S214004F2030B90448FFF7E4FF034B23600423A38053
S214004F30002010BDE0010020E401002010B508B3F9
S214004F40114B1A68918881421CD3998800248142AB
S214004F5081BF0121126899809A6099889A682AB957
S214004F6004B19A604FF6FF71998009E0884204D038
S214004F700131126889B20124F1E70CB198809A6079
S214004F80104610BD0022FBE72C07002037B50D4663
S214004F901446FFF7D3FFD8B10369828A63B14FF690
S214004FA0FE718A4208D1002069460090ADF80400E0
S214004FB0984738B103B030BD2B602280286848B9C6
S214004FC02080F7E7009B2B60BDF804302380F5E7D0
S214004FD00120EFE70020EDE737B50D461446FFF752
S214004FE0ADFF70B1036973B14FF6FE72818A9142CC
S214004FF009D10095ADF8044069460120984703B0F2
S21400500030BD0120FBE70E20F9E7000037B5044667
S2140050100379124A0333019300F14403009306CA4E
S21400502002231430FFF7E0F8228A237A0192E2681E
S21400503004F12C00009294E80600FFF7D5F8054628
S214005040237AA4F8450084F844302279216804F1D4
S214005050470008F0C9FB284603B030BDB4DA0000AC
S21400506070B50E4C0E4B04F1100206460D4692E843
S214005070030083E803001846FFF7DAF80222094B1C
S21400508018341A7294E80300DE6083E803001D8279
S2140050901846BDE87040FFF7B9BF00BF88D80000CB
S2140050A0142500200C0500202DE9F0410546164683
S2140050B08846FFF7F3FDAB8A181A80B2864228BFEF
S2140050C0064637465FB93EB1D5E901329A4202BF7D
S2140050D0AB7D43F00103AB753046BDE8F081AB8A8B
S2140050E02C68A8681C44241AA3B2BB428CBF3C465A
S2140050F0A4B22246414608F077FBAB682968AA8A24
S21400510023440A44A0449342A7EB0404AB60A7B22E
S21400511028BFA960D6E770B5044615461E4611B3EB
S214005120FFF7BCFDA38A181A80B2012829D9E37DAF
S21400513063B1E368628A1A70120A07D02068A18AEF
S214005140013301448B4228BF0346F4E70023638201
S214005150A3680222E36004F112012046FFF7A4FFD1
S214005160E37D0133E375324629462046FFF79CFF70
S214005170638A03446382E37D13B9238A034423824C
S21400518070BD0020FCE72DE9F0411646054688462E
S214005190FFF784FD864228BF0646B6B237464FB9AB
S2140051A02EB1AB7DDA0744BF23F00103AB75304662
S2140051B0BDE8F081AB8A2C6869681C44641AA3B207
S2140051C0BB428CBF3C46A4B22246404608F00CFBCD
S2140051D06B682968AA8A23440A44A0449342A7EB32
S2140051E004046B60A7B228BF6960D8E770B51E4696
S2140051F0038A04461546EBB9C27DDAB10123013AAB
S2140052000B70C27500F110010222FFF7BCFFE37DB0
S2140052109BB1228A2946B24228BF32462046FFF773
S214005220B2FF238A1B1A2382E37D13B9638A1B1AF3
S214005230638270BD00230B70EBE7638A2382E8E786
S21400524070B50D46A8B9FFF7F1FD446BFFF7EEFD0C
S21400525058B12346084C03F14006224618685968A0
S214005260083303C2B3421446F7D1044B2B60042321
S214005270AB80002070BD00BF88010020A801002080
S21400528038B5202204460D460C30002108F0B7FA47
S21400529000234FF0FF32A375C4E90025A260E37532
S2140052A06376A376237638BD2DE9F04F0E460025AB
S2140052B08BB004464FF0FF311046C6F3130917466D
S2140052C09A468DF81350FFF7DBFF4E456BD12B4601
S2140052D0E1688B420DD0A26802EBC30052F833207F
S2140052E0551C0DD0C2F31302914509D141684D1CDF
S2140052F008D1237C002B58D147480BB0BDE8F08F6F
S2140053000133E6E73846FFF7BBFF0DF11303012232
S21400531039462046FFF702FC0028EAD09DF81330F5
S2140053208AF800300020E8E72368ED1A636CB5FBC6
S214005330F3F542E04046FFF7A3FF0DF11303029A90
S21400534041462046FFF7EAFB8646D8B1B11C03D09B
S214005350D8F80030B34215D19DF813302F4A8AF89A
S21400536000303B4602F1280B9446BCE80300DC45BF
S21400537018605960624603F10803F5D1F346DCF87D
S21400538000001860D8F8081032E0BBF1000FB3D068
S2140053904E45C7D19AF800307A68314604F10800C5
S2140053A0FFF768F9BEE7B31CA3D1E56A681CBBD15A
S2140053B0616A2046FFF7C4FB0546B31C18BF0123ED
S2140053C0DFF858800293636A626C0393236805A92A
S2140053D002FB053BE36B05225B695846984705A828
S2140053E0FFF70EF80BF1140319464FF0000B01936C
S2140053F04A1C05D0636C019A5B424A40134299D01E
S21400540029462046FFF79CFB039BAB42BDD0BBF171
S214005410000FBDD10546D6E70BE000F0D81E0020F1
S2140054202DE9F04F4FF0FF33002589464FF6FF7108
S214005430044600F1080689B0C0E90913C362056294
S21400544005633046FFF775F92046FFF791F9002807
S2140054505ED14FF6FF7BD4F824800027D84514BFD2
S21400546045460025E3699F4255D32046FFF780F95D
S214005470002836D1B84D2046FFF7B5F92CE1236851
S214005480E26B606C576903A9052200FB0530B8473C
S21400549003A8FEF7B5FF0128074603D0C31EDBB2FC
S2140054A0012B15D829462046FFF769FB0246012F37
S2140054B094F85030676C2168009308BF0132434669
S2140054C007FB0511E06BFEF7D1FF2046FFF750F90A
S2140054D00135E3699D42D2D32046FFF749F90028FB
S2140054E0B7D000254FF0FF384FF6FF73C1462F4662
S2140054F0C4E90853E3699F4241D3A5EB0805012D93
S21400550060D84FF6FF72636A934270D1934DB2E74C
S21400551004F14008DDE7636CE26B2068D2F814C043
S21400552003A9052203FB0500E04703A8FEF768FF72
S214005530022812D0D84518D109F1010294F850304B
S214005540606C2168009300FB051104F14003E06BDA
S214005550FEF78CFF2046FFF70BF9E3690135B5FB34
S214005560F3F2013703FB12557CE729462046FFF786
S21400557006FBB0F1FF3F08BF4846421CDEE7636CFF
S214005580E26B2068D2F814C003A9052203FB0700CB
S214005590E04703A8FEF734FF824603A8FEF708FF9D
S2140055A0BAF1010F0CD8484538BF6762804528BF5E
S2140055B08046854238BF05468146236A013323620A
S2140055C0013797E74FF6FF7300256362E3699D4254
S2140055D097D2676C2068E36B05225B6903A907FB1B
S2140055E00500984703A8FEF7E3FE0135EEE7E26BF9
S2140055F0676C2068556903A9052207FB0300A847C6
S21400560003A8FEF7D5FE616C2268636A544D01FB61
S21400561003231433A3624FF0FF332A46E3626FF08E
S21400562001010DF10B032046FFF73EFE002857D17F
S214005630AB68E362E56A20462946FFF7B9F82063BF
S21400564020B9E16A2046FFF7F4F8E06229462046D2
S214005650FFF7EFF80546A36A9D4243D16369656C80
S2140056602046A5F11402DD1CB5FBF2F503EBC505DB
S2140056700335B5FBF2F5FFF7B6F8AB1C984281464A
S21400568042D2616A2046FFF75BFA01268046033560
S21400569004F1400A731E994515D82368676C0522E5
S2140056A007FB0837E36B03A95B693846984703A8EE
S2140056B0FEF77EFE94F85030024600933946534675
S2140056C0E06BFEF7D3FE41462046FFF739FA013677
S2140056D0B5428046DED1234D284609B0BDE8F08F9E
S2140056E0A36AA6E729462046FFF762F8236B2946F9
S2140056F00344074623632046FFF79BF80546002F22
S214005700A9D1C4E90B07A6E73046FFF712F8164DF5
S214005710A16AE36A994201D04B1C01D10025AAE692
S2140057202846FFF7ADFD0DF10B0301222946204662
S214005730FFF7F4F930B1D5E900129DF80B3030468A
S214005740FEF798FFA9684A1CE3D169682046FFF770
S21400575070F80146DDE700BF03E000F016E000F059
S214005760AC1E002013E000F0041F00202DE9F04FCF
S214005770354C85B0E369019003F48033029341F61B
S21400578071334FEA820BE363012241F20C038A462F
S214005790074689465E46E2500EB930462FE007F5CA
S2140057A0005525F4FF5525F01F056761ED1BE269DE
S2140057B0B54228BF3546520735D4D9F8001009F14E
S2140057C00402A161A5F10408B8F1000F0ED104226D
S2140057D041462261212008F04FF880B9212008F0C8
S2140057E04BF860B92F44A944761BD5E70821084634
S2140057F0039208F041F8039A78B10423236142F239
S2140058000C020121104B9950029A0AB10022DA6369
S214005810431C0BD070B10D4809E052F8041BA8F1E8
S2140058200408A161D0E74FF0FF30E8E7084805B06C
S214005830BDE8F08F5A465146019807F0E8FF002869
S214005840044808BF0020F2E70000034024E000F010
S21400585021E000F010E000F02DE9F04385B0884626
S2140058606946044681E80C000C9EBDF83470FFF7CC
S21400587065FB4FF6FE7905460DB1444505D94FF652
S214005880FF74204605B0BDE8F0832B7A9DF804200F
S2140058909A421ED10099686807F0B9FFC8B9002E71
S2140058A0EFD02B69AA8AA3B14A4509D10290ADF878
S2140058B00C0002A9984760B9029BBDF80C2043B1C2
S2140058C0974206D13A461946304607F0A0FF002810
S2140058D0D7D001342D68A4B2CEE70000F0B5354C21
S2140058E085B011464FF486701F461646FFF78EF9B0
S2140058F0236925462BB94FF48370FFF787F905B067
S214005900F0BD002F08BF082E21D16A46032120686B
S21400591002F01AFC636860615B7A04F11801237672
S2140059209DF800300220DA1F53425341627E63F333
S2140059300002029B6276E361BDF80230638323694E
S214005940984701220021206802F006FCD7E7002FC6
S21400595008BFB6F5800F03D1002101209847CEE797
S214005960002306F44052134309D04FF480714FF4DD
S2140059708170FFF74BF9236900210320EEE700232F
S21400598006F4A062134308D001214FF48170FFF79C
S2140059903DF92B690021FF20E0E7002306F0A05226
S2140059A0134319BF012140F2011031464FF48370B2
S2140059B0EDE700BF382300207FB502238DF80C30BA
S2140059C0064B5A8B596903320292186801AA02F0F4
S2140059D0BFFB019807B05DF804FB00BF382300202A
S2140059E008B500214FF48570FFF710F90022044B2C
S2140059F003211A6118680122BDE8084002F00CB9BC
S214005A003823002013B50D4B01281B880C4CADF82D
S214005A100430ADF8003002BF02238DF804300423B2
S214005A2001A9206808BF8DF8003002F0F3FA694635
S214005A30206802F007FB02B010BD00BFA8D8000027
S214005A403823002037B50022114C437A009260605C
S214005A50D0E90021206802F0F0FB238CDB050CD592
S214005A6063680C4D1A7A2978914206D0012A06D02E
S214005A70022A08D063681B7A2B7003B030BD2068FA
S214005A8002F0ACFBF6E7206802F0AEFBF2E700BFE0
S214005A9038230020210700207FB51A4C1948637A66
S214005AA00133DBB2272B88BF25236372FFF7CAFFBB
S214005AB0257B627C144C15494FF400730232206833
S214005AC002F021FB6368124A5B7A05F0010528465E
S214005AD0D65CFFF797FF42F2107300220293012371
S214005AE000928DF80C30314602AB206802F098F830
S214005AF028B1FFF775FFFFF7CFFF04B070BD054B69
S214005B002361FAE724010020382300203401002016
S214005B1089DA00007966000038B50D4611462C6813
S214005B200144A41A224607F081FE2C6038BD00000E
S214005B302DE9F84F8A465549554C0B689346C51AC9
S214005B405448554A241A55481560044424F4FF5412
S214005B5024F01F04A5428846914676D35B445E191E
S214005B60FFF724F908B9FFF719F986426DD8D8F877
S214005B70000000EB0B06B6F5806F03D98222484B77
S214005B801A7060E0474F5A465146384407F02CFEDC
S214005B90454BC8F800601A681AB9332E53D97A6B89
S214005BA01A601B68AC199D421DD8A3421BD203F194
S214005BB01002A24247D85B1B1F443B463B4A07F1F4
S214005BC0100153F8040B8B4242F8040BF9D1374806
S214005BD0FFF70CF910B9324B8422D1E71022FF21CF
S214005BE0384607F00CFE324F06F0030631483B6895
S214005BF0A41B044053B92840C0F500512144FFF7C8
S214005C005BF93C6040B1264B8522B9E7A34203D23C
S214005C10E11A03F50050F2E7D8F800202149921B5C
S214005C20D9F80000FFF756F90446D8F80020D9F84E
S214005C300030921B134415491A48C9F80030FFF784
S214005C406BFF002CDFD1BDE8F88F1B4B5B68B3F110
S214005C50827F134B14D25146002618780AEB0B02AB
S214005C608A4203D1002EEED01870ECE711F8017BC3
S214005C70FF2FF5D00126A54234BF87208320EFE70B
S214005C80A54234BF872283227AE700BF3023002054
S214005C9004010020100000206C0B0020F71A010001
S214005CA0690B0020301F0020F01D0020E01D0020A2
S214005CB03423002000E0FFFFEC010020EFF310800B
S214005CC072B67047054B5B69C3F38512827003F0AA
S214005CD03F021B0B42700370704700BF00C00740B6
S214005CE037B5044601A8FFF7EDFF9DF80630012101
S214005CF023804FF480730020084A638093680A3339
S214005D0003F01F0301FA03F36360956CD36C40EA5B
S214005D100502C4E9022303B030BD00BF0080E00FD7
S214005D20EFF3108072B6704700B962B67047000095
S214005D3010B5034CA01DFEF7FDFF0023236010BD29
S214005D40C01D002010B5094CB4F80710A079FEF766
S214005D50DDFFA368B4F80D10054AC3F30F23938440
S214005D60D184FEF7B5FF0023236010BDC01D0020C0
S214005D70C4060020034B044A9979117500221A6064
S214005D80704700BFC01D0020C4060020FFF7CCBF30
S214005D9008B5C36800209847024B1868BDE808405D
S214005DA0FFF7C2BFB81D00202DE9F04F984F89B00D
S214005DB03B7806468946039203F0FF0B002B37D14B
S214005DC0FEF7F4FF8246FEF7E9FFBAF1000F00F097
S214005DD01381904BA0F50055D3F80080C3F800B0AF
S214005DE08D4BA5EB0A0593F834101C4600297FD08E
S214005DF01A68924540F000815A68954240F0FC804F
S214005E009968864A914240F0F780DA68062A40F0A0
S214005E10F38040F26C725969914240F0ED80D96B84
S214005E207F4A914240F0E880C3F818B001233B70E7
S214005E30794D95F83430002B00F0DE8046F480284B
S214005E40784E012105F13C00FEF786FC06AB324693
S214005E5041462846FFF728FA0446002840F0D3803B
S214005E609DF81830032B00F0CE80022B00F0CE8079
S214005E703769E86BFFF78CFF002C40F0BD80039B72
S214005E801B78BB42C0F0B88095F834300293002BE4
S214005E9000F0B28001216448FEF75EFC0DF11303AA
S214005EA0604A41465C48FFF7FFF9044698B99DF8FA
S214005EB01330012B40F017813369BB42C0F00D81CF
S214005EC0D6F804B0DFF850A10097009ADAF83C3014
S214005ED0002A40F0B180504BD86BFFF759FF002CDA
S214005EE040F08A80039B1F70029809B0BDE8F08FCF
S214005EF0482203F11000D3F838B007F080FC40F2D7
S214005F006C736361454B04F10800A3600623E360ED
S214005F10C4F838B0C4E900A5FEF70BFC404B04F10A
S214005F204000E363FFF7DCFE00286AD1626C002ABB
S214005F3067D06368B3FBF2F3E36194F84330002B59
S214005F405AD00023656C84F85030002D54D0E36995
S214005F50002B51D02268B2FBF5F305FB1323002B70
S214005F604AD1D4F804A0BAFBF5F305FB13A3002B23
S214005F7042D12948FEF731FE82453DD340F63472C1
S214005F806369CC3B934237D8B5F5007F34D3032101
S214005F902548FEF7E1FBD4E90001E36B1B68984750
S214005FA00546E36B0220DB689847D5B941461A4898
S214005FB0FFF736FA1D4B0546984204D1414616486F
S214005FC0FFF72EFA054665B9636C1348A3F114086B
S214005FD0236A03FB08F8FEF700FE154B804538BF22
S214005FE01D46B5FA85F3E06B5B0984F83430FFF79D
S214005FF0CFFE002D3FF41AAF0023039A02931370CE
S21400600072E7002398E700270A4C32E7042730E7B8
S214006010241E002000040020281E0020F41D00205E
S2140060206CDA0000801E0020641E002013E000F0E2
S21400603002E000F00BE000F05B69012205A958467B
S21400604098472C49059B0968C3F3D312914246D161
S21400605003F07F03012B30D905A8FEF78FFA4FF027
S21400606004080646009B9E423BD8B208D84432D06D
S214006070EB6B49465B694046984726F0030306F0FB
S2140060800302019298449944019B6BB1DAF83C30C4
S21400609001225B6906A9404698474846019A06A928
S2140060A007F0A2FB019B9944009B59469B1B504658
S2140060B00093FEF7BEFB834607E7DAF83C30022281
S2140060C05B6906A95846984706A8FEF757FA4FF0A8
S2140060D008080646C6E70196D6E7074CFBE6074CD7
S2140060E0F9E6074CF7E6074C074A022B08BF1446AA
S2140060F0F1E600BF801E002011E000F022E000F074
S21400610023E000F00BE000F00CE000F02DE9F04199
S21400611006460D4614460C4F0CB9BDE8F081EFF369
S214006120108872B623462A4631463846FEF7F3FFF5
S21400613003464046FFF7F8FD002BEDD0E41AA4B264
S2140061401D440026E8E700BF9C1C0020002313B572
S21400615001F1080421461A46ADF80430ADF80600F1
S214006160083151F8100C70B90BB1ADF804200422B8
S21400617001200DEB02010834FFF7C8FF54F8101C8D
S21400618039B902B010BD51F80C3C1A4492B2012342
S214006190E6E734F80C2C0020EDE700007FB500237E
S2140061A00130CDE90433064BCDE9010169460420F0
S2140061B000930392FFF7CAFF07B05DF804FB00BF29
S2140061C0CE0100202822136810B5B3F5804F0ED2FA
S2140061D0EFF3108072B6002407490B780C70FFF7B7
S2140061E0A3FD3BB1BDE8104013681B6A18474FF487
S2140061F0817010BD1846FCE7BC1D002001282DE963
S214006200F34740F03C818B88012B40F03A810B68C5
S2140062101B7813BB9D4A9E4C13609E4A13609E4A91
S21400622013609E4A13609E4A13609E4A13709E4AED
S21400623013609E4A13602278022A01D1FFF7C2FF3C
S2140062400123237000249A4B1C709A4B1C709A4BA7
S2140062501C70204602B0BDE8F087032B40F0FC809F
S214006260954BDFF82C921C78002C39D199F8003029
S214006270002B00F0E7808B4B1B78082B40F08280C9
S214006280824B1868984668B928252B68B3F5804F66
S21400629063D34FF4017041F20803984200F0D480B3
S2140062A080241DE010F003060EBF2646C6F1040645
S2140062B0F6B200EB060ABAF5806F00F2C9807F4B93
S2140062C03246FF211844784F07F099FA7C4A3B681B
S2140062D012680AEB03019142C8F800A004D983248F
S2140062E0002389F80030B4E76A4A15681D4455440F
S2140062F0DFF8ACA125F4FF55DAF8000025F01F05FD
S214006300854209D9291A00F50050FEF7D5FD08B1D7
S2140063108524E5E7CAF8005028231B68B3F5804FAC
S21400632018D21B6BB3F5804F14D21D69634AD8F898
S214006330003039680020A84705463B68D8F800209A
S214006340524913449E1B5D483E60FFF7E5FB002D57
S2140063509AD0DDE74FF48175EFE7FDF79BFF002845
S21400636099D12B680190B3F5804F07D21B6BB3F51C
S214006370804F03D29B69012101A8984701224D4B0B
S2140063801A70ADE7002B61D0494B1B78002B87D0E5
S214006390464E336843B9414B10224A491868FEF707
S2140063A099FD00289CD0B3E713F003021CBFC2F18E
S2140063B00402D2B29F18B7F5806F49D84248FF2131
S2140063C0184407F01CFA414A414B37609B1A414A71
S2140063D01344314A23F4FF53156823F01F03AB42DE
S2140063E0904637D82F44FEF7E1FC08B9FEF7D6FCF6
S2140063F087423FF674AF3368294F1D4425F4FF5596
S214006400386825F01F05854208D9291A00F500507E
S214006410FEF752FD00287FF47BAF3D6032682A49C4
S214006420D8F80000FEF756FD0546D8F8003032686A
S2140064301E4913442448C8F80030FFF76DFB002DB2
S214006440A9D065E781244BE7862449E7842447E7FB
S214006450822445E7872443E7042B14D11323022123
S2140064601D4C637020462170FEF726FC1B4A1C4B11
S214006470128905329A801B4A1A6062789A71002443
S214006480E7E60D24E5E60624E3E600BF640B0020FD
S2140064906A0B0020742500206C0B0020F01D0020E5
S2140064A034230020C8010020700B00203023002079
S2140064B0680B0020D5010020690B0020640700202F
S2140064C078250020E01D0020301F0020100000204E
S2140064D004010020F71A0100D41D0020C406002085
S2140064E0C01D0020756B000028231A6810B5B2F591
S2140064F0804F0ED2EFF3108072B60124074A11784F
S2140065001470FFF711FC39B9BDE810401B68DB6951
S21400651018474FF4817010BD0020FCE7BC1D00201A
S2140065200B4A08B5937E4FF0005443F04003937631
S2140065300022084B1A70084B1B782BB1FFF7D4FFCC
S214006540064B2360FEF7A6FC2360FEF7A3FC00BF05
S214006550C406002020070020D501002002020FF00C
S21400656010B5134CA37E5B0621D4FFF739FA40F230
S214006570E24225202168A38C02FB031294F84F10F8
S2140065802260A27A0A4492FBF0F100FB11220A2153
S214006590A272228901322281626801FB03236360B2
S2140065A0238B5A1E228313B90820FFF7B9FF10BDAC
S2140065B0C40600202DE9FF41294C40F60100218940
S2140065C0FEF724FBA37E13F0400242D143F0010302
S2140065D003F0FD0362F38203224AA376136823B115
S2140065E021899288914200D19847A37A1E4F23446E
S2140065F093F82A301D486375FFF724FAD4E900544F
S2140066007B6864085B7A1A4A2E1B012012F8038006
S2140066106435FFF7F7F900960026254401246A46FC
S21400662041463346386802958DF804608DF80C6054
S2140066308DF80D408DF80E6001F0F6FA05462246FC
S2140066403146386801F088FD35B1FFF789FFFFF75E
S214006650B1FF04B0BDE8F081064B3B61F9E700BF2F
S214006660C4060020C01D002038230020D0060020CD
S21400667089DA0000DD67000002282DE9F0411FD00E
S21400668002D8012807D0FEE7032800F09C80FF28E8
S21400669000F09980F7E74D4C237B980707D5FFF766
S2140066A09FF9FFF7F9F9237B6FF341032373237BED
S2140066B0990701D4DA0764D4BDE8F041FFF7ECB9D6
S2140066C04B784C68DB077ED5227802F00F07032F45
S2140066D059D0052F77D13E4904F108008B7B03F093
S2140066E00103B3EBD21F4CD10622083107F08FF816
S2140066F08046002845D1FFF773F9FFF75DF9354D61
S214006700414606465C22284607F079F8AB7E2F8382
S21400671043F02003AB76627E237E012743EA022302
S214006720AB84627F237F04F11E0043EA0223EB84DE
S21400673094F82330C3F3040385F84F3094F82330DD
S214006740C3F3421385F850301B232B85FEF7F2FA6D
S214006750D4F80E30E27CEB60A37C2E6043EA022382
S214006760227D2F7543EA02432B6195F84F30607DFA
S214006770AB72E18A3944FEF7C9FAFFF71BFF164BE6
S2140067801F70BDE8F081124D04F10800AB7B03F0EA
S2140067900103B3EBD21FF4D1062205F1080107F07E
S2140067A036F80028EDD1094C4FF4007394F83920E0
S2140067B004F138010232286801F0A5FC237B43F07F
S2140067C002032373DDE7FFF70BF975E724010020CA
S2140067D038230020C40600202007002002282DE9C8
S2140067E0F7430F460BD003D8012800F0B281FEE72E
S2140067F0032800F0B681FF2800F0B381F7E7487859
S2140068004E6810F00104BA4D61D14FF0FF3140F6EA
S2140068100300FEF7FBF92646AB7EB64C13F0200FBE
S21400682012D0696D6FF34513AB76002900F09F8098
S214006830237895F8582043F0030323706270A01C59
S21400684006F0D2FF00236B65AB48FEF727FA003050
S21400685018BF0120AA7E237860F34102C2F300111C
S214006860AA7661F38203C2F3C00262F3C30360F345
S21400687004132370218840F60200FEF7C7F96278F9
S214006880DFF8988202324FF400739A49D2B2D8F8F1
S214006890000001F038FCAB7E7C68D90709D56FF3A1
S2140068A00003AB7600236B60FFF786F82860FEF7E0
S2140068B00FFA4EB1237803F00303022B00F0318168
S2140068C06DD8012B00F02C8103B0BDE8F083318831
S2140068D040F60300FEF79AF93378A97EC3F3001357
S2140068E096F8008063F38201A976C8F3C003C1F36B
S2140068F000118B4206D108F00303022B05D019D8ED
S214006900012B31D00026344615E0A146767896B1A4
S2140069107A48848AFEF7C2F9201A80B2B9F1000FCD
S21400692004D0022892BF0020023880B286428CBF74
S214006930002401242646AB7EC8F38008C3F3C002B9
S214006940904507D082F0010262F3C303DBB243F046
S2140069502003AB76002C3FF45FAFAB7E81F00101E5
S21400696061F30413AB7657E74FF00009CEE795F8CE
S2140069702830A21C0DF107015F48FEF737FCC0B2B5
S21400698058B19DF80730002B0CBF01220222237855
S214006990607062F30103237056E70122F7E7A378DD
S2140069A0022B65D011D8002B4DD0012B38D0544A7D
S2140069B0127822B1162B7FD0182B00F08C8007227D
S2140069C0504802210270437027E00C2B18D0142B7D
S2140069D056D0082BEBD1B8F8201054F8035FC8B295
S2140069E005EA0002474801F47F4142EA01050446F1
S2140069F00921002304F8011BC0F8015063600CE075
S214006A0040484FF0FF320370012382704370022229
S214006A10037100230621C2704371FEF74DF953E758
S214006A20617A237A384A43EA01239380134637492A
S214006A3043F8061B54F8031FC2F80610A2889A8073
S214006A40A2799A7140E7627B237B2F4943EA0223AF
S214006A508B800B462E4A43F8062B54F8032FC1F8BA
S214006A60062062685A6022891A81A27A9A722BE7F7
S214006A702A89254B05329A80264A1A60E278E0E792
S214006A80B4F80530B4F80320DB08934228BF134659
S214006A902B8515231B4800216FF004046FF0270296
S214006AA003700723817081714470C2700371447152
S214006AB0C27103720921B0E72279E37811481340C6
S214006AC003F00303022B18BF012317224370027042
S214006AD083700321A1E76279A1790B4B42EA012278
S214006AE09A800D4A1A60D4F80320C3F80620EBE615
S214006AF0C4060020802700209C1C0020841B002049
S214006B00B41D0020D41D0020C01D0020315D0000F3
S214006B10455D0000756B0000755D000038230020A1
S214006B2000261248A51C818AFEF7B8F8081A647871
S214006B3080B226B1022892BF0020023880B2A3B2EB
S214006B4083423FF6C1AE2A4631460848FEF7E3FACE
S214006B50BAE6074B9B7E9A073FF5B6AE5B073FF556
S214006B60B3AEFFF7FDFCFFF725FDADE6841B002066
S214006B70C406002008B5024B9879FFF7D1FC00BF89
S214006B80C01D00202DE9F04F01288DB040F08D810A
S214006B908A88002A00F08B81B24E96F800A0BAF1DF
S214006BA0000F00F08681B04B1C781F4664B9AF48D2
S214006BB00578009045B9AE4D286802EB0008B8F598
S214006BC0806F05D982241C7020460DB0BDE8F08F7A
S214006BD0DFF8B8920968484406F006FEBAF1020FDC
S214006BE0C5F800803CD0B8F1030FEDD9DFF8AC82D1
S214006BF04046FEF77DF998F80030D9F80020012BC2
S214006C009C4B58D19A4258D1D8F80830DB035AD555
S214006C1002233370FFF768FC28231B68B3F5804F08
S214006C2007D21B6BB3F5804F03D29B6805A90020E3
S214006C3098470598904B069A1860904BDFF860824C
S214006C401A608F4B00EA08024FF400511A60FEF7F4
S214006C5033F960BBFEF7EAF8D0B93378022BB3D12C
S214006C608848894E90F800C031682B681CF0F70FF2
S214006C7001EB0302804640F0D180804803F0030A0F
S214006C800068A2EB0A0282421FD983243C709BE76D
S214006C904FF40051D0F834A0FEF70EF938B94FF48F
S214006CA000510AEA0800FEF707F90028D5D0852328
S214006CB03B701C4688E79A4205D084233B703B789D
S214006CC0002B81D0F4E78623F8E76B4A126803EBC3
S214006CD0020B8B446A4BABEB0A0B2BF4FF5B18687A
S214006CE02BF01F0B834501930BD9ABEB000100F58E
S214006CF00050FEF7E1F8019B08B18524C6E7C3F80B
S214006D0000B028231B68B3F5804F80F084801A6B90
S214006D10B2F5804F7FD22B68D2F810B0A3EB0A03EF
S214006D205A4A31680020D84783462A683368A2EB5F
S214006D300A0213444E4955483360FEF7EDFEBBF198
S214006D40000FDAD198F80030002B7FF43DAF33689F
S214006D507F2B7FF739AF03A905A8FDF779FA10B99D
S214006D60059B88F8003098F8003013F0F70F3FF4D2
S214006D702BAF4FF028082A68444904A806F034FDD3
S214006D80D8F800203368B2F5804FB6D2126BB2F551
S214006D90804FB2D20021D2F80CA008463B4AD0471A
S214006DA082460028A9D13668D5F800B009EB06005F
S214006DB05A4604A906F018FD314B5E442E60C3F80F
S214006DC000A0334E334B7360D8F80030B3F5804FD5
S214006DD093D29B6A4FF480512F48984700288CD155
S214006DE0D8F800202B68B2F5804F5BD2D2F82C8002
S214006DF03146264A2848C04706462A681C49234882
S214006E00FEF78AFE40F203239E421DD040F2012385
S214006E109E4225D1D8E64FF4817B86E73260282251
S214006E201268B2F5804F13D2D2F82CA01849174A30
S214006E301948D04782462A680D491448FEF76CFE6A
S214006E4040F203239A4506D10123009A1370BBE64D
S214006E5040F2022AEFE740F201239A453FF472AF70
S214006E60802413E76A0B0020690B0020680B0020C3
S214006E70640B0020EB17A60374250020782500205D
S214006E8034230020C8010020700B00206407002077
S214006E90740B0020315B0000840B0020EC01002006
S214006EA000E0FFFF40F20226A7E700248CE60D2450
S214006EB08AE6812488E600BFFEE7000000487047A7
S214006EC000F04902084B1B6F03F00703022B04D0A7
S214006ED0032B06D0012B02D0FEE704487047044877
S214006EE070470448704700BF00800040C0EA210198
S214006EF0002D310100F0490208B5FFF7E3FF044B0F
S214006F001B6FC3F301330133B0FBF3F008BD00BFC2
S214006F1000800040044B054A9A60D3F8882042F46B
S214006F207002C3F88820704700ED00E000400000C3
S214006F304FF040232DE98048D3F89430ADB013F0DD
S214006F40400F24AF1BD14FF00053002238461A6082
S214006F50FDF7CEFFFDF76AFFC0B1446BFFF7C4FA3A
S214006F60269B5B0740F12883FDF760FF28231B68FC
S214006F70B3F5804FC0F0A383FFF724F906E04FF087
S214006F8000531A68022ADED100221A603846FEF73D
S214006F9099FEB94B9B6DDE0318D4B84A136823F4E8
S214006FA0FF0323F4FE4343F4BC1343F4A0631360CF
S214006FB052F8043C23F4704343F4404342F8043C44
S214006FC052F8043C43F4E06342F8043C9DF89130E8
S214006FD0012B0FD19DF8903063B94FF000531B681A
S214006FE0A74B1B68A74B1B68A74B1B68A74B1B68C8
S214006FF0A74B1B68A74BD3F8802042F00302C3F8C8
S21400700080201B6F03F00703032B3CD045F60E02CF
S214007010994B0221C3F8802041F22802995042F28F
S2140070202802012199509A6DD503FCD49A4A9B49AF
S2140070301A619B4A9A611A6A22F00D021A629A6ACB
S21400704022F0330242F001029A628B4A1346906D98
S21400705031EA0000FBD141F22801022050509A6D1F
S2140070605400FCD41A694FF0004122F4700242F436
S21400707000121A6141F21802995042F228020221C7
S21400708099500121995041F228034FF001087A4D9A
S214007090804CAE6A834845F80380FDF72BF9236FD2
S2140070A006F0020643F480632367236F23F007038A
S2140070B043F003032367FFF71FFFFDF71BF9FFF7F6
S2140070C01BFF794A236F904294BF0020012023F4CF
S2140070D0806343EA802323671EB942F2280345F8FB
S2140070E0038001236B4A714DC2F880326B60704B8F
S2140070F004241B6C2CAA2B66002302F8984D08A9C2
S21400710035200893FEF750FE06238DF81730089BAF
S2140071108DF8164013F4803F0AAC00F0D9822B6E2F
S2140071208DF828302B6E8DF829302B6E8DF82A308E
S2140071302B6E8DF82B302B6E8DF82C302B6E63F06B
S2140071403F038DF82D309DF82E3043F001038DF867
S2140071502E30584B5C6000244FF48071564B574AD3
S2140071605961C3E900229A601C82554A554B38463D
S214007170C3E900229A605961202221461C8206F04B
S2140071803EFBB42101238DF893104F498DF89230C1
S21400719025918DF89A305A218DF8A2304023082286
S2140071A08DF89B108DF8A3304849494B38468DF82A
S2140071B091208DF899208DF8A1202791299300F031
S2140071C0A3FC4448444B21460360444B444E436072
S2140071D000F008FD26A3D3E900233060CDE90023A4
S2140071E04FF0FF334FF0FF3200F030FF02224FF037
S2140071F0FF31306800F034FF3A4B3946249330684C
S21400720003F500332694259300F052FD364D36499B
S21400721030682C7000F04EFF10B10134032CF6D10C
S214007220244C306800F0D6FFB4F900202978306886
S21400723000F07AFC0146306800F027FF6468DFF84B
S214007240B4A0002C40F05E825046FDF77DF8B37B7C
S21400725064F30003B3731022244B254C83F82123D8
S214007260002183F8222304F10A0045E0AFF30080F2
S214007270083540140000000000C0004034C0004044
S214007280004000200080002000C0002000000120F8
S21400729000400120008000402008B00B03000140A1
S2140072A03C8C8C0300B4C40480F0FA0200C001A831
S2140072B00080E00FD80100209C1C0020B41C002099
S2140072C09C1B0020841B0020C0D8000048D900006A
S2140072D004D9000068230020DD5800005C2300204D
S2140072E0382300203C0094001200002000E100E05B
S2140072F0240100204023002083F8262383F825233A
S21400730083F8232383F8202383F82423562206F0C9
S21400731076FABC48BC4B4FF49072C4E900032523B0
S214007320637201233284B94A237213700023DFF894
S2140073308083B74DC8F800301B232B801E232CAA51
S21400734002F89B3D14A93620FEF72EFD20232CAA1A
S21400735002F89C3D39463920FEF726FD80BBAD4B32
S2140073609DF8152018681B7924903B71002A00F0C0
S214007370D2811B2A28BF1B22531D8DF8143014A956
S214007380531C0DF195008DF8933006F02DFA1CA8CD
S214007390FCF7DAFFA04A9DF8143012882CA9FA529E
S2140073A09A1C51FA82F200211C9802F8201CBDF8A3
S2140073B07410093342F81F0C22F81B1C8DF8143089
S2140073C020232CAA02F89D3D1CA93A20FEF7ECFCCF
S2140073D048B9924B1A889B78ADF870208DF87230B9
S2140073E003238DF8133000224FF002098C4B8D4892
S2140073F0C3E900228C4B80F804900360FCF718FF6A
S2140074008A488B4B80F80490036010230372FDF7C4
S214007410FDFD8848884B80F804900360874B80F811
S2140074200890C360A0F81090CDE900394B4690E86C
S21400743006001430FCF7D8FE9DF81510002900F061
S2140074407B8114A84FF01009FDF70AFE7C487D4B9F
S21400745080F804900360FCF7EBFE7B487B4B4FF60E
S214007460FE7B036008237A4AA0F810B0C26080F85A
S214007470049003720393FDF7C9FD7648764AA0F898
S21400748010B002600C224FF0020B0272734A80F8B2
S2140074900490C260FDF7BAFD7148724A039B026011
S2140074A0714A80F80490C260038280F808B0FDF745
S2140074B0ADFD6E486E4B80F8049003606D4B80F80F
S2140074C008B0C36001230382FDF7A0FD6A486B4B3A
S2140074D080F8049003606A4B80F808B0C3604FF6EB
S2140074E0FE730382FDF792FD6648674B80F80490B2
S2140074F00360664B80F808B0C3604FF6FE730382E5
S214007500FDF784FD624B464A1A604FF6FF729A807A
S2140075109DF81420202A05D8931D637439465D48CB
S21400752006F062F99DF81320202A06D8931D84F8E9
S21400753039301CA9584806F057F9FEF751FA237B54
S214007540B27B43F001032373237C02F0010203F0B5
S214007550F00362F386132374637C0BB9062363740B
S214007560BAF804104D4BB068C4F812009980042194
S21400757094F8383061F3030362F3861384F83830E6
S21400758094F8393013B9062384F83930B068BAF85D
S2140075900420434BC4F83A009A80FEF77DFA414C2B
S2140075A0414B1B78002B40F00781404A136923F0BB
S2140075B00403136130BFF3E7002C3FF4DDACFDF7A6
S2140075C0EDFB8442BFF4D8ACFDF7E8FB04F14003C2
S2140075D083423FF6D1AC2046FDF708FC00283FF476
S2140075E0CBAC6369002B65D1FEF7ECFDFDF71EFC06
S2140075F00446FDF71BFC2D4B986023689D46636888
S2140076009847C3E4D6BE898E55555500B41D002054
S214007610CA010020D4D90000E4D90000E7D9000050
S2140076202407002034250020EBD900006405002044
S214007630EED9000038070020F1D90000AAD80000D3
S21400764054250020F4D90000BC05002005DA00000F
S214007650FD6100001406002016DA0000856B0000AD
S2140076605C04002027DA00008CD900006C0600209D
S21400767038DA000088DA0000B404002049DA000096
S2140076801D4F0000040400205ADA0000415200009A
S2140076902C0700203C010020640100203601002059
S2140076A05E010020F80100202007002000ED00E029
S2140076B0FC0300209DF89030012B95D154E45B6AC2
S2140076C098470446FEF77EFD002C3FF45FAC8DE73E
S2140076D00DF1170221462C20FEF766FB00283FF42A
S2140076E03AAD0DF1160207A93C20FEF75DFB9DF8AA
S2140076F02E3020B19DF81C2062F3000327E560F3CE
S214007700000324E52068B060A288A379AAF80420C4
S2140077108AF806309FE50E238DF814300A238DF87C
S2140077209330B64B1A68CDF895205A681B7ACDF878
S21400773099208DF89D302AE60921B04882E6EFF3BD
S214007740108672B600230DF119011A46AC48FDF7F3
S2140077504DFD3046FEF7E8FA9DF8193013B10023C8
S214007760C8F80030D8F80020EFF3108672B6C2F5DD
S21400777001739BB222440DF11901A148FDF736FDB5
S21400778003463046FEF7D0FAD8F80000184403281F
S214007790C8F8000010D9B4F8009009F10403984224
S2140077A00AD306D86088002704280BD0062800F0E5
S2140077B083810023C8F800309148FDF76FFA00284F
S2140077C0BDD1F2E6227909F1FF33082A6F809BB219
S2140077D000F0DD801BD8042A8A4E37D0062A4CD00B
S2140077E0022A1AD1022B40F06381B4F805700022F9
S2140077F0B7F5007F28BF4FF4007703231146022019
S2140078003370A6F80170FEF7C9FC2F80D1E7102A66
S21400781000F0FE8003D80A2A6ED0062292E0122AD2
S21400782000F09980522AF8D1B4F80500FDF786FBDF
S2140078300028BED0037B5B07BBD5A9F1030292B23A
S2140078407149B4F80500FDF7C7FBB2E7042B79D100
S214007850B4F80570B8B2FDF771FB58B1027A41680A
S214007860022A0CBF01230223052073703070778034
S21400787003205FE06F800A2264E04FF00203DFF827
S2140078808CB1A9F10702B4F80500B4F8071092B25B
S2140078908DF844300BF102030093CDF840B001920E
S2140078A010AB0CCBFDF7D8FF4FF6FF7A504581465C
S2140078B004D16368C3F30F236B80DCE74FF0020349
S2140078C0CDE900778DF83430CDF830B001300CAB10
S2140078D00CCB514680B2FDF7BFFF072350451CBFB7
S2140078E000F1FF3080B23370A6F80190A6F80300CE
S2140078F00022042011461DE0022B40F0D980B4F887
S2140079000500FDF71BFB00283DD0037B990714D527
S2140079102B882CAA013B22F88C3D10A9B4F8050050
S214007920FDF734FB024648B90B21364BBDF8242040
S21400793019701099FEF732FC3BE702226368C3F326
S2140079400F236B8001262F4B207969881E70587094
S21400795059801A71CCE7B4F80500FDF7EFFA90B13C
S214007960037B1A0711D5A9F1030292B22649B4F88F
S2140079700500FDF731FB02460028DFD11321214B1D
S21400798019700146D6E70122D8E70322D6E7A9F107
S214007990050B1FFA8BFBBBF1020F03D0BBF1100FD8
S2140079A040F08880194BB4F80500B4F8071010931F
S2140079B00023CDE900338DF844B010AB0CCBFDF7B7
S2140079C04BFF4FF6FF73984206463FF472AF2B8884
S2140079D02CAA043B22F8963D09A9FDF7D7FA0246E1
S2140079E008B16E80AEE70921064BBDF81A20197063
S2140079F0911C59705E8009993AE700BFDAD90000F9
S214007A00841B0020CE010020FF0100200102002080
S214007A10A9F1050B1FFA8BFBBBF1020F02D0BBF1DD
S214007A20100F47D10027B4F80500B4F80710DFF8A8
S214007A30A4A0CDE900775FFA8BFBCDF840A08DF8C7
S214007A4044B010AB0CCBFDF707FF4FF6FF79484567
S214007A5006463FF42EAFCDE90077CDF838A08DF876
S214007A603CB001300EAB0CCB494680B2FDF7F4FEBD
S214007A7007462B8848452CAAA3F1060318BF00F139
S214007A80FF3722F8963D09A9304618BFBFB2FDF76A
S214007A907DFA02460028A4D111210C4BBDF81A200D
S214007AA01970111D59705E809F800999052041E765
S214007AB0042247E7024645E7054B10A91093022328
S214007AC0CDE912771193FEF741FB72E6CE01002056
S214007AD01000002001020020FEE7000008B5FFF7B6
S214007AE019FA064A064B07498B4201D3FCF742FBBC
S214007AF052F8040F43F8040BF6E700BFB4FA000090
S214007B00100000200401002038B50446054D00F0A2
S214007B10E6FA0FCC0FC594E80F0085E80F000020AA
S214007B2038BD00BF8028002047F6FF739A42F0B5A4
S214007B3052D0032952D82A4BCE0013F83110981988
S214007B40012984780DD1C3781B1B23B1416831F914
S214007B501310914202DCE018C0B2F0BD013B1BB22C
S214007B60F3E740680028F8D0B0F90050954204DBEF
S214007B70B0F902509542B8BF15462821A5F1C802B3
S214007B8092FBF1F233445B785242591E12B28A429B
S214007B90A8BF0A464FF47A7700EBC206F188B668AB
S214007BA0013215FB016112B221EAE17101F5FA71A9
S214007BB09A42B1FBF7F104DA00EBC206B6888E42B1
S214007BC0EAD200EBC20232F8040C884228BF08460C
S214007BD0A04238BF2046BFE7FF20BEE70020BCE734
S214007BE08028002070B50E46044678B1084D2B78E4
S214007BF063B9084B186000F035F83146204600F0AF
S214007C0021F8031C18BF01232B7070BD0020FCE771
S214007C10A4280020A02800200846114600F036B808
S214007C2000B10C3001F0D4BA00B10C3000F01CBA30
S214007C307047431E012B03D9031F58425841704713
S214007C400120704738B504460D46002100F01BFAA7
S214007C502946204601F04CF900280CBF204600209B
S214007C6038BD000010B5044600F0C8FB44B1054A14
S214007C70D4F88030002B08BF1346034A136010BDAB
S214007C80636FFFDE317C00001800002010B50C4644
S214007C9000F0D6FB1CB100F031FC0128FBD110BD72
S214007CA000B10C3000F040BD00B10C3000F054BD07
S214007CB000B10C3001F07AB92DE9F04FDFF8709181
S214007CC085B004468B4616468DF80F3001F06EFBE5
S214007CD0B9F8005001F078FB00283CD1524F002E36
S214007CE03ED0386000F00AFC012865D1DFF844A1D8
S214007CF0A26EDAF80030E06E002B65D0934266D0B4
S214007D001D68116802680DB18D426FD0204601F0E3
S214007D1077F8012200230546CDE90123D4F87C80BC
S214007D20B8F1000F72D000220DF10F031146204665
S214007D30C0474DBBD4E91A23CAF800203B60E6B919
S214007D40029B002B59D1019B002B56D100252846BB
S214007D5005B0BDE8F08F0023334F3B6001F02CFBED
S214007D60E36E3A689342BDD1002BBBD05D45EDD0A3
S214007D7000F0C4FB0128B9D01EE03146C9F800B0B7
S214007D80204600F0FBFD05460EB9019B83B1B5FA0F
S214007D9085F03321400900F0FBF99DF80F102046CE
S214007DA001F03AF8214BE16E1B68A4F10C009847ED
S214007DB0284605B0BDE8F08F012000F041FB00F03A
S214007DC09DFB0128FBD191E7116802689EE73968A0
S214007DD0002995D0814293D1B5EB0B024FF00003FA
S214007DE018BF0122019302921D4697E7396811B128
S214007DF00968914205D0596888E7C9F800B001992A
S214007E00BEE701230025CDE9013587E7217994F8FF
S214007E10B8309DF80F20994228BF1946204600F03A
S214007E2046FD002DB0D185E7B028002018000020C0
S214007E30A8280020AC2800202DE9F04F074683B084
S214007E400E46FDF73BFFFB6E814613B13B89B342FE
S214007E504AD0BB6E002B55D09C68002C52D0D968F7
S214007E6000294FD0D7F87CA0BAF1000F52D04FF0BF
S214007E700008A7F10C0B4046454600E09C6805EB61
S214007E80450204EBC204E2890135B24217D8228AC1
S214007E90B24214D3B4F91210B7F92A0101938842FA
S214007EA001EAE17217DD97F8AC105846FFF73CFE82
S214007EB03A79804682420ED92046019BD9688D4287
S214007EC0DCD338B901244846FDF72EFF204603B020
S214007ED0BDE8F08F04460023224619463846D047B0
S214007EE03E81FC6687F8B880002331461A4638463D
S214007EF0FFF7E2FE04464846FDF716FF204603B0AD
S214007F00BDE8F08F03244846FDF70EFF204603B079
S214007F10BDE8F08FD0465046554647F6FF7BA7F1A2
S214007F200C0A0EE097F8AC105046FFF7FDFD3A79C4
S214007F3080468242D4D92046019BD968A94215D9E9
S214007F409C6805EB450204EBC204E2890135B242A7
S214007F50F4D8228AB242F1D3B4F9121001935945EB
S214007F6001EAE172DED14FF0FF08B9E70028A9D098
S214007F700446B5E7F8B50D1C18BF01250E460746A2
S214007F8000241F21284600F003F9304601F0DAFEEF
S214007F901F21284687F8C840C7E91A6400F0F8F899
S214007FA04FF6FF721820F168E3B28B420BD31546EA
S214007FB000230A4A29461360094A38461360FFF729
S214007FC03BFF2846F8BDB56800FB0353DD899542A4
S214007FD002D2002DECD02A460134E5E7AC2800207A
S214007FE0B0280020008970470A7838B50546104644
S214007FF0FFF71FFE60B14C782046FFF71AFE38B137
S2140080002243530704D42846BDE8384000F0D2BBCC
S214008010012038BD00B10C30FFF7E6BF10B50446AE
S2140080200878FFF706FE58B14A781046FFF701FEBB
S21400803030B1042A04D02046BDE8104000F0E2BB70
S214008040012010BD00B10C30FFF7E8BF30B4DDE909
S214008050024500B10C30CDE9024530BC00F07EB9D7
S21400806000B10C3000F0D2BA70B504460D46164684
S214008070FFF7E2FE30B9324629462046BDE870409A
S21400808000F066BA70BD01F0A7B938B50446002006
S2140080900D4601F055FE4CB1D4F8883043B9294658
S2140080A004F10C00BDE8384000F026BCE36FFFDEAC
S2140080B0022038BD38B5044648880D4601F040FE1B
S2140080C04CB1D4F8883043B9294604F10C00BDE819
S2140080D0384000F0C7BBE36FFFDE022038BD01F07A
S2140080E030BE38B505460C46FDF7E8FDA9696B6954
S2140080F00C4023436B61FDF717FE00200CB90021EE
S21400810038BD8021FCE700B10C3000F0CEBD00B1D8
S2140081100C3000F0E4BD00004FF4007307B502AA6F
S21400812022F8023D0749FFF7F2FFBDF80630B3F527
S214008130007F05D1022808BF002003B05DF804FBCD
S2140081400120FAE7B42800200846114600F0D8BC03
S21400815000B10C3000F094BD38B5154658B100F1AA
S2140081600C0411B1204600F0D1FD35B12046BDE823
S214008170384000F019BE0446F3E738BD024B1960DC
S214008180024B1860FEE700BF1C0000202000002005
S21400819008B528B9034B1960034B1868FFF7EEFFC4
S2140081A008BD00BF1C000020A0280020034618B110
S2140081B05B7B0C3013B108475B78FFDE022070470C
S2140081C010B5044601F058F92046BDE810400321DA
S2140081D000F020B900B10C30FFF7F2BF0149FFF7FD
S2140081E0E5BF00BF519400000149FFF7DFBF00BFA5
S2140081F02994000070B51E46437805461446D3B150
S21400820091FAA1F1080A00F02BFBE30703D52846F4
S21400821001F060F968B1AA20214601F069F99DF8DD
S2140082201020442082F00102314601F0D1F90020EE
S21400823070BD5520F0E70220FAE710B49DF8044020
S2140082400C3001945DF8044BFFF7D4BF024BD8689E
S214008250C0F30360704700BF000002A8704700002C
S21400826038B16FF0FF02034B10401A60A3F580533D
S2140082701860704720E000A8C2690F4B02F0600249
S214008280402A12D0602A04D0202A12D10122DA61B4
S21400829007E071B10A68012A0BD94A6942F0010267
S2140082A0DA618022054B1A61704740F20112DA61EA
S2140082B0F7E70022DA61F4E7201F00B0000002A80A
S2140082C0F7B506460C46174D39B90A46072104F09D
S2140082D0A9FCC5E9004403B0F0BD0727124B02A86D
S2140082E01F600B792B704B79012140F8043D04F098
S2140082F0B5FC019BC2B2D34000F00F0040EA031069
S2140083006870A379094AAB70E3793946EB70236845
S21400831030466B602379013313623A4604F082FCE0
S214008320D9E700BF181F00B00C6000A8004000A8E6
S21400833000F01803182B084B02D100221A6270476F
S214008340010702D501221A627047C206F5D540F22F
S21400835001121A62704700BF201F00B02DE9F34BD0
S214008360DDE90A67D0E938890446002588EA060070
S21400837089EA070101EA030C00EA020B8CEA09010C
S2140083808BEA0800C4E9380122F0010006EA00087A
S21400839007EA03091946CDE9005549F0800348F07D
S2140083A0004203F003FB2378DB0720D5D4E938230B
S2140083B0002003F0800150EA010318D04FF480310A
S2140083C02046FFF78EFE237865F300032370D4E97A
S2140083D0382302EA000503EA010655EA060306D03A
S2140083E005492A4609683346A4F10C008847002050
S2140083F002B0BDE8F08B00BF24000020034A0368EB
S214008400002B08BF1346024A136070475D820000C7
S2140084102400002031F00F0003BF054A01F00F01D1
S214008420D368012002BF23F00F030B43D3607047CD
S214008430201F00B0014B002019617047201F00B0BC
S2140084402DE9F34103284BD8DFE800F046023E4210
S214008450002401262546FDF731FC074603F082FC82
S214008460804640B100230022CDE9003301200023DE
S214008470002103F09BFA2946304603F00DFE224603
S2140084802946304603F068FEB8F1000F16D0164BAA
S2140084901B6803B10C33154A126F520208D4DB690D
S2140084A013F0800F4FF4001314BF114A114A1360E3
S2140084B011490868FFF7D4FE00230B60384602B067
S2140084C0BDE8F041FDF730BC012500242E46C2E78A
S2140084D0012425462646BEE7002425462646BAE75A
S2140084E002B0BDE8F08100BFA0280020000002A86E
S2140084F0205001A8206001A8D02A002008B5FFF768
S214008500A5FE01380B280DD8DFE800F01414061479
S214008510141414080A080808032008BD0420FCE701
S2140085200520FAE7044B5B6913F0060F14BF04201E
S2140085300120F2E70220F0E700C001A8034B1B6F02
S21400854013F0A00F0CBF012000207047000002A807
S214008550114603F051BC00000138C0B202284FF0AB
S21400856060518EBF00220D4B53F820200C4B00208C
S2140085701960A3F580531A604FF400124FF0805133
S2140085801A60084A936F23F0060343F004039367C8
S214008590054B19600423C2F88C307047C4DA00001B
S2140085A0206001A8004000A87C1002A8114B1B7890
S2140085B013B10622104B1A600022104BC3F88C2011
S2140085C04FF0805203F5F0337C331A600C4B1B6F70
S2140085D013F4800F0B4B08D1C26912F0800F4FF4D2
S2140085E0001216BF08491A600A604FF06052002059
S2140085F01A607047B82A0020786000A8004000A8DB
S214008600000002A8206001A8205001A870B51546F9
S214008610C269064682EA05030B405340C361080759
S2140086200C4606D5082315F0080F14BF334A344A03
S2140086301360E10706D5012315F0010F14BF2F4A7A
S2140086402F4A136062070CD503F00EFD4FF400733B
S21400865015F0040F14BF2B4A2B4A136004222B4B31
S2140086601A60A30706D5022315F0020F14BF234A8B
S214008670234A1360E00606D515F0100F14BF00223B
S2140086801B22234B5A6521061ED52A0625D54FF4F4
S2140086900012204B1A60012203F587531A60FDF77B
S2140086A00DFB0146FFF7D2FD032806D11A4AD36810
S2140086B023F0F00343F0E003D36040F20122144BB2
S2140086C00846DA62FDF730FB14F0600F03D0316F16
S2140086D03046FFF7D1FD002070BD104B1B6F5B02CC
S2140086E0F2D44FF4001196F888300D4A1160002B32
S2140086F0EAD001220B4B1A60E6E700BF4C5000A8F8
S2140087004C6000A8245001A8246001A8702002A88C
S214008710004000A8205001A8201F00B0000002A8BA
S214008720206001A8005101A8014B186A02F0D2BBD4
S214008730004001A8036F53B11A68022A07D9586A85
S214008740C0F3072030B11B6AB3FBF0F070470C385B
S214008750FFF7A6BA70470000014B186A02F0E2BBAA
S214008760004001A8026F62B11368022B09D9536A50
S214008770C3F3072040B1126ADBB25343B3FBF0F0F9
S21400878070470C38FFF790BA70470000064BD3F8D6
S21400879038311B0401D4FFF7E5BF0A78034B0448C1
S2140087A0012A18BF18467047004001A820A10700FC
S2140087B048E80100F8B5114D0F784C782E68FDF7A3
S2140087C07DFA02460E49FFF741FD0B2808D00C281B
S2140087D001D0092807D11046FDF7A6FA0220F8BDF9
S2140087E00B6FDB03EFD42406B3B244EA07441C4302
S2140087F010462C60FDF798FA0020F0E7CC1E00B07B
S214008800000002A8F8B5144E0C784F783568FDF7CE
S21400881055FA02461149FFF719FD033808280FD804
S214008820DFE800F0050E05050E0E0E0E0A001046D7
S214008830FDF77AFA0220F8BDD1F83031002BEAD1E4
S2140088402B0C1B041C4344EA072410463460FDF737
S2140088506BFA0020EFE700BFCC1E00B0000002A8B5
S21400886002F0BEBB70B5044600F1AC060868C4F85A
S214008870AC008B880846A4F8B0308B88C4F83C312E
S214008880FF23637101F0E8FA054670B9304601F03F
S214008890C1FA054648B9204601F0BEFC0121A4F8FD
S2140088A0B00004F1800002F041FE284670BD70B5AD
S2140088B0054690F8AC000C460428164618D0FF294A
S2140088C018D001F0B3FBA04204D895F8AC0001F034
S2140088D0ADFB04466C71204601F048FCA0F1FF0396
S2140088E05C425C4116B9284601F0B4FB204670BDD8
S2140088F00224FBE70124F9E738B590F8AC300446CB
S214008900042B37D0C56E01718DB3C36F1BB990F8B9
S214008910B8308B4205D3B4F92A21B5F912309A4201
S21400892011DD002294F8B8102046FFF7C0FF054678
S214008930D8B9E0662046FFF755FB01462046BDE85D
S2140089403840FFF779BA00222046FFF7B0FF054609
S21400895058B9094B1B78022B07D8204601F05CFC5F
S214008960012104F1800002F0E1FD284638BDFF2316
S2140089704371FAE70225F8E732000020F0B5436AB3
S21400898087B0012B7DD00446554902F0B9F8012383
S2140089900025E16E84F8B4308A89238920679B1A03
S2140089A09BB2D1E9016202FB03624E49C4F8BC20C7
S2140089B00A68A4F8C4309042C4F8C05016D058B123
S2140089C003684BB103693BB19968D3E90023C4F847
S2140089D08C10C4E9202304E00023C4E92033C4F843
S2140089E08C3001462046FFF747FC226F002A32D023
S2140089F01368032B2FD9D4E92F1201AB204602F0BF
S214008A0031FB002839D1384AFFF720FC01380B2803
S214008A10FAD9536913F0060FF6D101A904F1BC0088
S214008A2002F08AFC054640BBB4F8C4202F4B304900
S214008A301A642378E26E60F3000323700B685269B1
S214008A405E1C116821D0481C2ED08B1C1AD02046E4
S214008A5000F006FE16E0244AFFF7F8FB01380B2864
S214008A60FAD9536913F0060FF6D1D4E92F1201ABE9
S214008A70204602F0F7FA0028C5D00225284607B09F
S214008A80F0BD0025284607B0F0BD4A1CDDD1D4E96C
S214008A903823002003F0800150EA010309D123782F
S214008AA043F001032370EDE71946204600F0D8FD99
S214008AB0EDE74FF480312046FFF713FBD4E9382367
S214008AC002EA000603EA010756EA0703DAD0094974
S214008AD032463B46A4F10C0009688847D2E700BF3F
S214008AE0FC1F00B0C42A002000C001A8008001A816
S214008AF048000020240000204FF4807104F0A4B841
S214008B0037B50DF106020D4601F05EF8044688B151
S214008B1085B12B7813F0F70F0CD0FDF7CFF8074B85
S214008B20BDF806201C60064B1A806A88054B1A8022
S214008B30FDF7FAF8204603B030BD00BFBC2A00207F
S214008B40C02A0020BA2A00202DE9F743064615461B
S214008B50084619B9012003B0BDE8F083002AF9D011
S214008B60032905D80022114601F02EF80028F1D07E
S214008B70038882781C0402F007017BD4A1F1070C5D
S214008B80077990F80580C488DCF1000040EB0C0003
S214008B900529287394BF0020C2F300106873C2F33F
S214008BA080102874C2F3C000C2F340126874AA741E
S214008BB05FBB96F8A620013AEA74F269D20653D44F
S214008BC00639012950D82C4A063B526D9BB2062224
S214008BD069462A4800F065FEE3049DF9007017D444
S214008BE09DF801004400E0B2B36F0BB139469847D8
S214008BF0E873AF736A7CDDF80210304602F0B2FD0F
S214008C00012328602B720020A5E7013FEF74D4E70C
S214008C10336FC4F30B04E40093B11A68022A0FD929
S214008C205B6A13F0FF0301D0B4FBF3F4A04517D83A
S214008C30C4B1C8EB0828B8FBF4F4E443E0B2D3E7C9
S214008C403046FFF777FD05F1110181463046FFF704
S214008C509DFD0028EAD009FB04F4B4FBF0F4E5E738
S214008C600020C1E72046BFE7002080232860EB8174
S214008C70287270E702206EE7004000A838400044E3
S214008C80F8B506461446177AFFF75EFF054650B954
S214008C90237A43B104F1110127723046FFF776FDBF
S214008CA0214602F02BFD2846F8BDB3FA83F3192BB4
S214008CB0084610B5114610D0C3F11902D2B2062AE2
S214008CC028BF06220124931D9C40A4B2A14228BFBF
S214008CD0214600F069FD204610BD0022F2E7084656
S214008CE0118810B5B1FA81F119290DD0C1F1190119
S214008CF0C9B2062928BF062101238C1DA340138074
S214008D0000F070FD002010BD0021F5E70121084AA3
S214008D10084BD3F8EC3091624FF4005102F5005244
S214008D2024325B07116042BF0422034B1A6070476F
S214008D300840004400400044EC50004438B54B78EE
S214008D4005460C46BBB9FFF731FCA378BBB940F625
S214008D50FF72114B5A62E378ABB940F6FF720F4BC5
S214008D605A6260220E4B1A60402203F5E833243321
S214008D701A60002038BD1846FFF7EEFBE5E72846E8
S214008D80FFF7C4FFE7E76022064B1A60402203F5B0
S214008D90D83324331A60ECE70840004438400044D7
S214008DA04C5000A84C6000A838B54FF480640020F2
S214008DB00A4BD3F8EC5003F503532C331C60084BD6
S214008DC0186003F09BF94FF40052064B1A606A05D0
S214008DD044BFA3F577631C6038BD00BF0040004465
S214008DE0BC2A00205C600044082310B1024A1360CD
S214008DF07047024A13607047701002A8702002A8DD
S214008E0010B514460846012101F0E8FF204601216E
S214008E1001F0E4FF002010BDF8B54FF6FF76294DAF
S214008E20294AD5F8B4300F46C3F381231370D5F81A
S214008E30B8308189C3F38123B14204465370056F6D
S214008E4003D0224B1B6803B19847214E3368AB42D0
S214008E5032D0204B1B682BB185B3296801B1A968B5
S214008E6020469847236F13B11A68022A18D8A4F12F
S214008E700C00FEF719FF02F0AFFA0725204601F0B6
S214008E80CBF927B9294604F1800002F04FFB0620F3
S214008E900122246F1049114B346008601A70F8BD27
S214008EA05A6AC2F307200028E5D01B6AD2B202FB3A
S214008EB003F2B2FBF0F0DEE70125DFE729462046A5
S214008EC09847CFE7004000A8C82A0020CC2A0020F8
S214008ED0C42A0020B42A0020786000A8B82A0020FF
S214008EE048220021014804F08ABC00BFD01E00B012
S214008EF02DE9F34188460446002850D004234FF05D
S214008F00641280F8B8304FF6FF73C0E92822C0F824
S214008F10A820244A4FF0FF378374A0F83231038329
S214008F2013804FF04023C0F848710782D3F884308E
S214008F3000F10C0603F0C003802B2ED1304602F061
S214008F4019FF3046FFF7CCFF6022174B04F5A871D7
S214008F50DA643046FFF7F2FEA26A05463946304626
S214008F60FFF754FB0E234FF00042CDE90033802379
S214008F701046194602F01AFD01F024F84DB92046B5
S214008F80FFF7CAF80546B8F1000F02D008B9204628
S214008F90C047284602B0BDE8F0810225F9E784F80C
S214008FA0AC00FFDED42A0020004000A870B50C46B6
S214008FB0054600F180060988943002F09BFA618825
S214008FC0208005F19C0002F095FAA188608005F1EA
S214008FD09A0002F08FFAE188A08005F1980002F06E
S214008FE089FA2189E080304602F090FA6189208172
S214008FF0304602F093FA07216081304602F096FA76
S214009000002070BD4FF6FF72B0F82631934211D0A3
S214009010094A0A49526E100CC2F301120132B3FB20
S214009020F2F30880064A074907481B0408601360E5
S2140090300020704703207047004001A8D42A002073
S214009040645001A8646001A80000FFFFF7B505465C
S2140090500E461446FFF772FA002800F09D804FF483
S2140090600061284603F0F0FD38B14FF4007201218C
S2140090704A4B08461A60FEF709FE31462846FEF7B8
S214009080DBFE0646002870D12B789B0601D4002C08
S21400909044D04FF44062424B1A6014F0020204D1EE
S2140090A0404B41491B789B020B604FF440613F4B9D
S2140090B0196022B93B4B3E4A5B789B02136002F074
S2140090C0D3FF4FF4806314F0040F14BF394A3A4AB2
S2140090D0324F13600422402314F0400F3A6014BF4E
S2140090E0364A374A20461360FFF722F92846FFF72C
S2140090F003FD38B14FF4807314F0010F16BF314AE8
S2140091003B601360A70602D52846FFF77BFF0034B6
S21400911018BF01242B7864F345132B70284600F003
S21400912063F9F8B12846FFF7E7FCD8B14FF40031F1
S214009130284603F089FD00280CBF012302230322E2
S21400914001A9214800F0ADFB9DF804101F4A01F06C
S2140091500703052B9DF8053012D1080708D443F401
S21400916080735360002000F0EBFD304603B0F0BD86
S21400917059070BD49DF8063043F480735360F1E72B
S21400918003F03001202904D1DB07F3D54FF48073B8
S214009190F4E79DF80630F1E70226E6E7702002A81D
S2140091A0B46000A8C82A0020B45000A8B86000A880
S2140091B0B85000A8245001A8246001A888D000A8B0
S2140091C088E000A8701002A808400044AC1E00B05A
S2140091D073B506461D46FFF739FF044688B995E87D
S2140091E003006A4682E803009DF80430B6F89A1039
S2140091F0012B034607D1884205D20094104602F0A0
S214009200E7FE02B070BD5B1A0093F7E74FF6FF71FA
S214009210084A10B513888B4209D00748074C1B0430
S2140092200460A0F5805003600020118010BD03206C
S214009230FCE700BFD42A0020646001A80000FFFFFE
S2140092404C4B2DE9F3471C6881468A46154604B107
S2140092500C348021484801EA0A0300EA0902134355
S2140092604BD0002309F00042134309D0434B1B6840
S21400927003F07F43B3F1007F02BF0222404B1A6027
S214009280002309F00102134328D04FF00008002203
S214009290002300210120CDE9008802F087FB012091
S2140092A001F062FE414660810120FEF7EFFC354B7F
S2140092B01B6F5A0208D4E36913F0800F4FF40013B3
S2140092C014BF314A314A136031490868FEF7C8FFB7
S2140092D000230B60237843F00403237000220AF077
S2140092E08003134309D001212046FEF7FAFE2AF038
S2140092F0800749EA000947EA010AD4E9382309EA5F
S21400930002000AEA030102460B46134306460F46CE
S21400931016D0204BA4F10C0019683B468847002362
S21400932006F0080213431EBF00221B4B1A600823D8
S2140093301A4A1F40164056EA070301D0FFF766FF99
S214009340EB070AD51649174A08680021136811600A
S2140093500121154A117003B1984715F00E0F06D07B
S2140093603B21002002B0BDE8F047FEF711BF02B077
S214009370BDE8F087A028002001000080CC1E00B0C9
S214009380081002A8000002A8205001A8206001A82A
S214009390D02A002024000020BC2A00200000C0BFE5
S2140093A0DC2A0020D82A0020D62A0020014BD3F839
S2140093B04C3170470080E00F4FF40022014B1A60DA
S2140093C0704700BF702002A8024B186FC0F3C04061
S2140093D0704700BF000002A8014B024A1A6070479F
S2140093E0B42A0020C1820000802103F02DBC0000BA
S2140093F008B54378033BDBB2032B96BF084A00212F
S214009400D15CFFF717F8012001F0BEF84FF4F062C8
S214009410044B1A604FF40072A3F580531A6008BD1F
S214009420D0DA00004C6000A8012310B580F8883020
S2140094302823A0F892300423044643700349FEF71D
S21400944099FD2046FFF7D4FF002010BD18F9000054
S214009450012310B580F888302823A0F89230022324
S214009460044643700349FEF785FD2046FFF7C0FF1C
S214009470002010BDBCF4000038B5124D0446286824
S21400948001F07EFCAB68186801F07AFC0E4BDA68D7
S2140094901AB19B68186801F073FC0C4BDA6842B18D
S2140094A09B68186801F06CFC094B9B68186801F013
S2140094B067FC2046FFF7CCFF2046BDE83840FFF7A4
S2140094C097BF00BFBCF4000018F90000DCF10000F4
S2140094D04CF300004078053801288CBF002001209E
S2140094E0704700000022014B1A707047E02A0020E7
S2140094F02F4B70B51A781AB12E4A926E8A4256D001
S21400950001221A702C4A01F0030383F0010313446E
S2140095109C780D461E2305F00706965D013B3444F5
S2140095204FEA5505F7D147F6FE72244B55281A60C8
S214009530234B03FB04F36FF481744FEA93432344F5
S2140095404FF00F0402EA43031E4A1360194B996654
S214009550C2F8344E0CBF01240224A2F5E672146051
S21400956091FAA1F190FAA0F04FF0FF32D3F838311B
S2140095701B045EBF4B08000F43EAC070124B48BF87
S21400958005211A604FF0F04248BF1048A3F58053FB
S214009590186058BF490003F5805303F10C0358BF09
S2140095A001F002011A60C906A3F58053196070BD68
S2140095B0E02A0020004001A804DB0000306201A879
S2140095C036FC1000305201A8046101A8B7563512C7
S2140095D010B50724134B1C60134B144CAAB141F072
S2140095E040015863996301232360114BD3F8383147
S2140095F013F4004F4FF4804300D152B90D490B606D
S21400960052B14FF480430C4A07E05A639A632260D3
S214009610EBE70A4A1360F4E7094A13605360936065
S21400962010BD00BF3C6000A8004000A83C5000A849
S214009630004001A8B45000A8B86000A8B46000A814
S214009640B85000A8054BC3F85012C3F8541219B10D
S21400965042F20102C3F82822704700BF004001A86A
S21400966038B50C46054600F043F82146FFF7EAFFFA
S21400967045B1EB6E33B15B6923B1621C08BF6FF076
S21400968001041C60002038BD38B505460C4600F0C5
S2140096902FF8074B40B9D3F8481204B1216028468A
S2140096A0BDE83840FFF7DCBFD3F84C12F5E700BF43
S2140096B00080E00F07B50A4B1A7808236AB9094AF2
S2140096C0136000230193084B186800B10C3001A901
S2140096D0FFF7DAFF03B05DF804FB044AF0E700BFCB
S2140096E028000020FC1302A8A0280020FC2302A8C3
S2140096F0014B1878704700BF280000204FF48033D5
S21400970042F2E00209498B50094A1360094B9A68F5
S214009710D1B2C2F3072299649A6404229A640022A2
S2140097209A649A649A649A649A6470470040004403
S214009730EC500044384000442DE9F74F06681C46BC
S2140097409DF8303006F007060193B31D01269E40B3
S214009750771E8A46436804EA0701A6EB010843F031
S214009760005B424505469146594418D94246504644
S21400977004F03AF8A9EB080259460AEB080004F090
S21400978033F8019B43B14C443E433440EC60AB6835
S214009790A3421CBF0223AB6203B0BDE8F08F504665
S2140097A004F022F8EDE7000038B50C4C0D462260B8
S2140097B06060FCF783FA0021094BD3F8E020E160F3
S2140097C052075CBF42F2E0020421A56058BF9950E0
S2140097D0FCF7AAFA0DB10223A36238BD0840004484
S2140097E00040004440F6FF72034B1860034B1960BC
S2140097F058605A62704700BFE42A00203840004490
S214009800042A2DE9F84F054606D8013A032A2CD833
S214009810DFE802F043403D3A01260B78141F8361CF
S2140098204B7801F1040883618B788361CB78836180
S2140098300368D0F8089003F0070306339E4006F14D
S214009840FF3A0AEA09006F68A6EB000B5C4547F092
S21400985000570CD841463844224603F0C5FF04EBB7
S214009860090246EA0A063240AA60BDE8F88F5A4660
S2140098704146384403F0B8FF08EB0B01A4EB0B029B
S214009880384603F0B1FFEAE70B78013183610B78C5
S2140098900131AB610B780131AB610B78AB61BDE890
S2140098A0F88F37B5002514460095FFF745FF20468C
S2140098B003B030BD402938B514464FF001030BD82D
S2140098C0074D0A46AB6201462846FFF799FF2CB1C2
